:020000040800F2
:1000000000000220F1600208496002084B6002080B
:100010004D6002084F6002085160020800000000B5
:10002000000000000000000000000000519D0208D8
:100030005360020800000000B19D020855600208EC
:10004000416102084161020841610208C960020879
:1000500041610208416102084161020841610208F0
:1000600041610208416102084161020841610208E0
:1000700041610208416102084161020841610208D0
:1000800041610208416102084161020841610208C0
:10009000416102084161020841610208C160020831
:1000A00041610208416102084161020841610208A0
:1000B00041610208A9600208416102084161020829
:1000C0004161020841610208416102084161020880
:1000D00041610208856002089160020841610208DE
:1000E0004161020841610208416102084161020860
:1000F0004161020841610208416102084161020850
:10010000416102084161020841610208416102083F
:10011000416102084161020841610208B5600208BC
:1001200041610208416102084161020879600208E8
:100130004161020800000000000000004161020867
:1001400041610208416102084161020841610208FF
:100150004161020841610208416102089D60020894
:1001600041610208416102084161020841610208DF
:100170004161020841610208000000000000000027
:0801800041610208416102081F
:1001900010B5054C237833B9044B13B10448AFF3C1
:1001A00000800123237010BD4801002000000000E2
:1001B0009CBD020808B5034B1BB103490348AFF3CC
:1001C000008008BD000000004C0100209CBD02081A
:1001D00010F8012B11F8013B012A28BF9A42F7D0F1
:1001E000D01A7047034613F8012B002AFBD1181AC6
:1001F000013870470000000000000000000000000F
:1002000001F0FF01102A2BDB10F0070F08D010F8C7
:10021000013B013A8B422DD010F0070F42B3F6D1CB
:10022000F0B441EA012141EA014122F007047FF0E4
:1002300000070023F0E80256083C85EA010586EA3B
:10024000010685FA47F5A3FA87F586FA47F6A5FA77
:1002500087F68EB9EED1F0BC01F0FF0102F0070283
:1002600032B110F8013B013A83EA010313B1F8D12E
:100270000020704701387047002D06BF354603380F
:10028000073815F0010F07D1013015F4807F02BF48
:10029000013015F4C03F0130F0BC0138704700BF99
:1002A00053B94AB9002908BF00281CBF4FF0FF31DD
:1002B0004FF0FF3000F06AB9ADF1080C6DE904CEE3
:1002C00000F006F8DDF804E0DDE9022304B0704731
:1002D0002DE9F047089D0C46002B4ED194468C45E5
:1002E0008646B2FA82F262D94AB1C2F12003914045
:1002F00020FA03F30CFA02FC194300FA02FE4FEA5B
:100300001C471FFA8CF6B1FBF7F44FEA1E4307FBBC
:10031000141143EA014304FB06F199420AD91CEB8C
:10032000030304F1FF3080F01281994240F20F8103
:10033000023C6344591A1FFA8EF3B1FBF7F007FB36
:10034000101143EA014300FB06F69E420AD91CEB5A
:10035000030300F1FF3180F0FC809E4240F2F980FF
:10036000634402389B1B40EA044000211DB1D34086
:100370000022C5E90032BDE8F0878B4205D90DB1F6
:10038000C5E9000100210846F5E7B3FA83F1002929
:1003900046D1A34202D39042C0F0F080861A64EBAB
:1003A00003030120002DE6D0C5E90063E3E7002A3E
:1003B00040F09080A1EB0C044FEA1C481FFA8CF728
:1003C0000121B4FBF8F64FEA1E4308FB164443EA4A
:1003D000044307FB06F0984208D91CEB030306F11F
:1003E000FF3402D2984200F2CD8026461C1A1FFA32
:1003F0008EF3B4FBF8F008FB104443EA044300FB1F
:1004000007F79F4208D91CEB030300F1FF3402D227
:100410009F4200F2B0802046DB1B40EA0640A5E781
:10042000C1F120068B4022FA06F71F4320FA06FC92
:1004300004FA01F343EA0C03F44000FA01F8380C23
:100440004FEA1349B4FBF0FE1FFA87FC00FB1E4481
:1004500049EA04440EFB0CF9A14502FA01F20AD95B
:100460003C190EF1FF3A80F08480A14540F2818072
:10047000AEF1020E3C44A4EB09041FFA83F9B4FB6D
:10048000F0F300FB134449EA044403FB0CFCA445CD
:1004900007D93C1903F1FF3067D2A44565D9023B67
:1004A0003C4443EA0E40A0FB0293A4EB0C049C42A4
:1004B000CE469C4651D34ED055B1B8EB0E0364EBFB
:1004C0000C0404FA06F6CB401E43CC40C5E9006498
:1004D000002150E7C2F1200320FA03F10CFA02FCDC
:1004E00024FA03F394400C434FEA1C4800FA02FE3E
:1004F0001FFA8CF7B3FBF8F008FB1031230C43EA2A
:10050000014300FB07F1994208D91CEB030300F1FA
:10051000FF362CD299422AD9023863445B1AA4B21E
:10052000B3FBF8F108FB113344EA034401FB07F382
:10053000A34208D91CEB040401F1FF3613D2A342F5
:1005400011D902396444E41A41EA004139E704460A
:10055000F0E6084606E7C845AED2B9EB020E63EBFB
:10056000070C0138A8E73146EDE7034699E7304626
:10057000D4E7D6467FE7634402384DE70646234674
:1005800008460FE7023E634430E700BF704700BFF4
:1005900008B510B919F042FA00B1006908BD08B5F4
:1005A00010B919F03BFA00B1406908BD08B510B99F
:1005B00019F034FA00B1C06908BD08B510B919F0D6
:1005C0002DFA00B1006A08BD08B508B919F026FA7D
:1005D000806808BD40B1837E8B4204D9C0680C237B
:1005E00003FB010070470020704710B50C4668B946
:1005F0004B68186860B1036943B10022E26021468C
:100600009847207EC04300F0010002E00068F1E757
:10061000012010BD70B5044600F07EFA00BB63688F
:1006200000219868FFF7D6FF0E4605462DBB2146F0
:100630002846FFF7DAFF0646E0B163682946986866
:10064000FFF7C8FF00284BD0012E14D10368002B00
:1006500033D16368013598682946FFF7BBFFF1E79E
:10066000006883680BB1217A9847237E9E0752D495
:10067000DD07D4D50026304670BD2A683AB96368D4
:10068000013698683146FFF7A5FF0546CEE795F994
:1006900008102B7A0029F2DA802B04D0217A23F07B
:1006A00080038B42EBD16B68E36020469047237E4A
:1006B000980730D4D907E2D5DCE790F90810027A20
:1006C0000029C6DB12B1217A9142C2D14268E260B0
:1006D00020469847237E9A071DD4D807B9D5C9E785
:1006E000012EC8D160684368ABB1237E590712D48C
:1006F000237A233B012B10D94FF4804100F0FCFEFC
:1007000048B1237A113BDBB21B2B06D8084A22FAE8
:1007100003F3DA0701D50126ADE763685B68636020
:100720002046FFF777FF431E5E425E41A3E700BF0E
:10073000FF270F0B10B588B0B8B10023CDE9043204
:100740009DF81C300A4C8DF80C1023F00703CDE9FE
:1007500001008DF81C3001A8236806932060FFF784
:1007600059FF069B236008B010BD0120FBE700BFC6
:10077000640100200068704740687047007A00F00C
:100780007F00704700697047C0687047074B1B685F
:1007900003B970475A68824202D01A68824203D174
:1007A0001A7E42F001021A765B69F1E764010020CB
:1007B0002DE9F8430546174698460E4601F08AF89B
:1007C000D5F8089099F81A40D9F80C000134E4B231
:1007D00089F81A4004EB4404A1001AF017FBAA6838
:1007E000C9F80C00D36803B9FEE7917E0C246FF0C2
:1007F0000B0214FB012418191E510772C0F8048063
:10080000BDE8F883037A013B0F2B94BF00690020F9
:100810007047037A143B052B94BF00690020704792
:10082000027A132A0B4606D10269B2F900109942E6
:10083000B8BF194611807047F8B50746002019F077
:1008400035F900260446354634B9BDB9C6B9304637
:10085000BDE8F84019F02AB9204600F063F9236D8D
:10086000BB4205D1022808D02646042808BF2546E9
:10087000204619F01BF90446E6E725462846F8BD50
:100880003546FBE72DE9F047067E16F001060546E2
:10089000884691464FD1C4684FF0010A002C41D1DF
:1008A0002B7E1A0701D4002E45D1BAF1000F42D099
:1008B0002846C0470446002E50D04FF0000A002CB6
:1008C000EED0206800F024FE0306E7D42768002F4E
:1008D00033D1EB68A3422ED073B128461E68FFF7D0
:1008E000ABFF0F2102463046FFF724FF012822D13B
:1008F000EB68186801F0EAFEEC6028462468FFF710
:100900009BFF0E2102462046FFF714FF012812D15B
:10091000EB68186801F0DAFE2B6963B12846BDE880
:10092000F047184721462846C847002E08BF2646EC
:10093000B0420446C3D1BDE8F0870121384600F03B
:10094000DBFD20B9384604F02FFE0746BFE7012142
:10095000384600F0D1FD0028BBD09FE70028EAD040
:1009600006464FF0000AACE701481C2119F035BFDC
:1009700018050020014B1868704700BF680100206F
:10098000014A0249FFF77EBFDBA80108CFA8010892
:10099000014A0249FFF776BFE3A80108D5A801087C
:1009A00038B5037EC3F3C00543F0080303765B0745
:1009B000044606D4FFF7E4FF237E65F3C3032376E2
:1009C00038BDFFF7E5FFF7E770B50C46054678B38D
:1009D00019F07DFF0146C8B9204600F09BFD40B1EB
:1009E000A3689B6853B1DB681B68A34206D1FFF77D
:1009F000D7FFA36813B9204600F06CFFA368284610
:100A00009D6019F00DFF064638B9FEE70B68A3425A
:100A10000ED0284619F061FFDCE70460284619F083
:100A200056FF864204D12846BDE87040FFF7B8BFA4
:100A300070BD70B5064600F06DFD0446002838D044
:100A4000C368E3B11B68B34219D1037EDA0744BF20
:100A50006FF30003037619F03AFFE368834229D16C
:100A6000204619F037FFE368984223D105682046F5
:100A7000FFF7E2FE0F2102462846FFF75BFEE36820
:100A800023B11B68B34204BF0023E360204619F082
:100A90001EFF054668B12B68B342294620460DD19A
:100AA00019F0DAFE28461AF015F8B3680BB10022E7
:100AB0009A6070BD2046FFF773FFE0E719F00DFF65
:100AC000E7E710B1C06800B10068704738B5034669
:100AD000E0B1027EC2F340048C4217D061F34102C0
:100AE0000276FFF7EEFF044680B1DA681846156813
:100AF000FFF7A2FE0E2102462846FFF71BFE012843
:100B000004D12046BDE8384001F0E0BD38BD10B149
:100B1000007EC0F340007047014B1868704700BF6B
:100B20007001002008B103681878704738B50D4689
:100B3000044600283ED0437943F002034371214B21
:100B40001B68834202BF204B00221A6003681B7897
:100B5000013B012B12D821B9016341620023A3623A
:100B60000CE0036B8B4204BF00230363436A8B4298
:100B700004BF00234362836A8B42EFD038BD4379C0
:100B800043F00203437103681B78013B012B11D82A
:100B90001DB90563456284620CE0036BAB4204BF80
:100BA00000230363436AAB4204BF00234362836AAA
:100BB000AB42F0D018F07AFF0028E0D1024B186069
:100BC000DCE700BF700100206C01002043796FF367
:100BD000000310B54371044618F07EFFA06418F0BE
:100BE0007BFF606410BD10B90880488070470368BF
:100BF0001B7803F0FD03012B05BFB0F908300B8013
:100C00004FF6FF73B0F90A001CBF0B804FF0FF30A6
:100C1000EBE758B103681B7803F0FD03012B04D107
:100C200090F8400000F00F0070470020704740B17E
:100C300003681B7803F0FD03012B01D1C06A7047E4
:100C40000020704700230B804B8058B103681B784D
:100C500003F0FD03012B01BFB0F914300B80B0F994
:100C600016304B80704718B1437943F00803437145
:100C700070470000014B1868704700BF6C010020EE
:100C8000C0B103290BD00C2913D1B0F9223002686E
:100C9000527E0020C2F1640264211BB97047B0F992
:100CA0002030F4E7184400B2534393FBF1F31BB236
:100CB000F3E7002070472DE9F0414F680D463FB340
:100CC000384602F04FFD0646384602F0F5FC41F684
:100CD0001002804600213846FC8A03F08DFD23185F
:100CE000A3EB08039BB2EB82013B6B8341F612023C
:100CF00000213846BC8A03F07FFD0444A01B80B26B
:100D0000A882013828834BF67633EB61BDE8F08189
:100D100041F67603F9E72DE9F04F038C8DB08B4255
:100D200004468A46049300F0E38001840A4619468B
:100D300004F04CFA0390002800F0DA804FF42070A1
:100D40001AF07EF84FF4207106464FF000081AF0B2
:100D5000C1F86FEA0A0347460893638CC3F3C503DF
:100D6000434501D9202F04D11423354603FB0767DF
:100D700097E0D4F80C9009EBC80B4FEAC805DBF8F4
:100D8000040020F07F4004F045FBE36805902B440D
:100D9000586820F07F4004F03FFB089B059A0690BE
:100DA00013420DD19BF8073013F0020308D159F814
:100DB000051091F90920002A16DA4B681A8812B931
:100DC00008F10108C9E7672A0CD15D684FF00009F6
:100DD0002B6833F80930002BF2D0202FF0D03246A8
:100DE000002339E00833E9E7CA7A002AE8D0012A6B
:100DF0000DD0486800EB820131F8025B672D02D10B
:100E000050F82350E2E701339A42F5D8D8E70B892E
:100E1000C3F30E03672BD3D14D68D7E751680B930B
:100E200008460A92099104F0F5FA099907900846D4
:100E300004F0F2FA29680A9A31F80910B2F808C0E9
:100E40000B9B8C4506D10699814203D105990798E1
:100E5000814218D9013314329F42DFD114237B43DE
:100E6000E8682968F052F2182B695380AB68D360A8
:100E700031F8093013816B681361DBF80430C3F378
:100E800017035360013709F10209A1E7686804F00C
:100E9000C3FA00950146049A5346204604F0F4F83C
:100EA0001435AF42F2D1304619F022FE039B012BDC
:100EB00005D120460DB0BDE8F04F01F007BC039B03
:100EC000032B09D14FF6FF724FF4702120460DB06D
:100ED000BDE8F04F03F082BD039B022B08D12046F2
:100EE00001F0F4FB20460DB0BDE8F04F01F012B95F
:100EF0000DB0BDE8F08F00002DE9F043A5B0054628
:100F0000FFF73CFC06462846FFF734FC122E044649
:100F10005ED12846FFF736FC0378022B054608D041
:100F200061220021204603F067FC064620B102231F
:100F30002B7025B0BDE8F08301466022204603F007
:100F40005BFC40F60A020FFA80F83146204603F0B7
:100F500053FC40F60B0207463146204603F04CFC9A
:100F6000B4F91620B4F91AC0A18AB4F918E0BBB2DA
:100F700080B2C91A121A6044ADF848107344ADF833
:100F80004A20ADF84E0042466868ADF84C3012A9D0
:100F900019F0F2F808B90123CAE7212231462046A8
:100FA00003F02AFCC0B2FC28F5D93146682220465D
:100FB00003F022FC10F0FF06EDD140F26242314610
:100FC000204603F019FCC0B2FC28E4D92E70B0E72B
:100FD000152E40F08C802846FFF71BFC04AF064618
:100FE000384607F071F934220021204603F004FC52
:100FF00028B19DF8333043F001038DF833303A4681
:101000000021204600F06CFD40F60A020021204637
:1010100003F0F2FB40F60B0205460021204603F0E8
:10102000EBFBB4F918E0A18AB4F91AC0B4F91620A0
:10103000ABB2C91A7344ADF80C3083B2D21AADF812
:1010400008106344314612A80025ADF80A20ADF817
:101050000E300DF1080801F050F8C74B139312AA97
:101060001A21204614951697CDF854801F95FFF746
:1010700061FB61222946204603F0BEFBDDF820908B
:1010800098B3BDF9103083B308950125424639461F
:10109000304607F03FF915B3182019F0D1FE04F1DE
:1010A00014010546BDF91020002306F0FDFE04F5ED
:1010B0009071284606F040FDB9F1000F0FD00023D3
:1010C0008DF813308DF832308DF83A308DF8463087
:1010D000CDF8209042463946304607F01BF912AA57
:1010E0001B212046FFF726FB23E70025CEE7182E1D
:1010F0007FF41FAF2846FFF78CFB02AA064669461D
:10110000204602F0E2FE684618F009FF002800F0D1
:10111000C18004AD284607F0D7F821224FF4803172
:10112000204603F069FBC0B202288DF8130007D9EE
:1011300020224FF48031204603F05EFBADF814000E
:1011400031224FF48031204603F056FBC0B2022812
:101150008DF8320014D941F232024FF4803120462A
:1011600003F04AFB00B20028ADF8300040F3FB80EA
:1011700030224FF48031204603F03EFBADF82E00C4
:1011800040F645024FF48031204603F035FBC0B2F3
:1011900002288DF846001DD94FF404624FF48031C7
:1011A000204603F029FB00B20028ADF83E0040F3D2
:1011B000DE8040F643024FF48031204603F01CFBF2
:1011C0004422ADF844004FF48031204603F014FB74
:1011D000ADF83C0040F262424FF48031204603F00B
:1011E0000BFBC0B2FC280BD89DF8133043431B12F5
:1011F0008DF8133043431B0A8DF832308DF846309A
:101200009DF832209DF8133013439DF84620134378
:1012100046D060224FF48031204603F0EDFA31468B
:10122000ADF8100012A800F068FF534B139302238F
:10123000149368464FF4803316951F9318F06FFE91
:1012400080B112AA1A212046CDF854D0FFF772FAC5
:101250006A462946304607F05DF812AA1B2120464F
:10126000FFF768FA02A818F05AFEC8B102AB12AA3A
:101270001A2120461593FFF75DFA02AB1A4629465C
:101280003046159307F046F812AA1B212046FFF7B7
:1012900051FA05E002A818F042FE00287FF439AFA9
:1012A00061220021204603F0A7FA50B104F59070A6
:1012B00006F08CFC054620B106F09EFC284619F08D
:1012C00017FC34220021204603F096FA00283FF450
:1012D00030AE0DF110080025404606F0F5FF4246FD
:1012E000294620468DF813508DF82A508DF83A5033
:1012F0008DF8465000F0F4FB40F60A0229462046DD
:1013000003F07AFA40F60B0207462946204603F01E
:1013100073FAB4F91AC0B4F91620A18AB4F918E026
:10132000BBB280B2121AC91A60447344ADF80810F7
:10133000ADF80E00314612A8ADF80C30ADF80A2019
:1013400000F0DBFE0C4B13930123149312AA02ABA3
:101350001A212046CDF8588015931F95FFF7EAF91A
:1013600002AA4146B8E600238DF8323008E7002390
:101370008DF846302EE700BFE8BD020810B5134CCB
:1013800023780BBB19F098FB1AF05CFC19F082F87B
:1013900018F096FCFFF7E8FA05F0E3F803F020FAFE
:1013A0000B484FF4AC7119F018FA5821094819F09C
:1013B00014FA04F0EDFC08F0ABF80A2007F008FD81
:1013C00011F034FA0123237010BD00BF7801002012
:1013D000480500203C05002010B50146034800F0F8
:1013E000ADFA044600F035FB204610BDE8BD02080A
:1013F000F0B585B00D46044600F060FF15F001071A
:10140000064602D0204601F061F9E3692B43E3610F
:1014100017B1204601F05AF9204600F04FFFB042C4
:1014200002D115F0C07F07D0204604F0BDF800F0CF
:101430005FFF204600F05CFFEB060CD502AA694670
:10144000204602F042FD6946204601F025F902A936
:10145000204601F021F905B0F0BD7FB50D460446E8
:1014600000F02CFFEA0606460CD502AA6946204683
:1014700002F02BFD6946204601F00EF902A9204634
:1014800001F00AF9E36923EA0503E361EB070ED5EE
:10149000204601F01BF9204600F010FF38B120462D
:1014A00004F082F800F024FF204600F021FF2046DF
:1014B00000F004FFB04202D115F0C07F07D02046F3
:1014C00004F072F804B0BDE8704000F011BF04B041
:1014D00070BD038C43EA010231EA030302D01146D6
:1014E000FFF719BC7047038C0A461A4223EA010130
:1014F00001D0FFF710BC7047C36999430CBF0120AE
:1015000000207047C369194214BF012000207047B2
:10151000008C7047806800B180687047F0B508465D
:1015200085B00D46FFF72AF906462846FFF724F94D
:10153000012E044605D1202105B0BDE8F040FFF79B
:10154000C8BF033E272E55D8DFE816F047005400E9
:1015500054005400540028000F011101540054009D
:101560005E00E90028015400540089017A0154000A
:10157000890154005400890154005400540054005F
:10158000540054005400540054004D0154005400C1
:1015900054005400540054002A014E002021FFF74B
:1015A000A2FF2846FFF7EEF8FFF741FB10BBE36907
:1015B0001E071FD5238CDD074FF00101204602D402
:1015C000FFF787FF01E0FFF78EFF00221C21204676
:1015D00005B0BDE8F040FFF7ADB82021204605B0CA
:1015E000BDE8F040FFF77FBF03F0F0FF002506469F
:1015F000B54201D105B0F0BDA3681B6853F82500C2
:1016000000F076FE0135F3E7C369180715D52846C3
:10161000FFF7B8F8057805F0FD03112B02D1012181
:101620002046CDE7142D01D0122D03D101212046F3
:10163000FFF759FF0A2DDDD0C7E703F40163B3F5C7
:10164000016FD7D1204600F0F0F90028D2D1204612
:1016500002F088F80746204602F0EEF806462846D3
:10166000FFF790F80378122B0CD1204602F012F805
:101670000546204600F0E2FE031EB8BF033305EB2B
:10168000A3010DE0112B13D1204602F003F805460B
:10169000204600F0D3FE031E00DA0333A5EBA301BE
:1016A000002209B2204605B0BDE8F04002F0CEBBF2
:1016B000132B1CD1204601F0C7FF8107D5D0002F86
:1016C00001DC002ED1DD204601F0D2FF0546204688
:1016D00000F0AEFE031EB8BF033305EBA3010022EA
:1016E00009B2204605B0BDE8F04002F099BB142BCA
:1016F00080D1204601F0A8FF8207C5D0002F01DC71
:10170000002EC1DD204601F0B3FF0546204600F063
:101710008FFE031EB8BF0333A5EBA301DFE7C36948
:101720005B0502D5012102F0B5FB2046FFF7F2FE72
:10173000FFF7EDF90646FFF7EFF910B92846FFF776
:1017400061F8FFF7EFF9022808D0042814BF02213E
:1017500006212EB141F008012046EDE60621F8E70A
:101760002046FFF7B6FE082138E74021F4E7402184
:10177000FFF7B9FE204601F05FFF02287FF43AAF81
:1017800002AA6946204602F0A0FB6946204600F006
:1017900083FF02A9204600F07FFF2BE70E211DE703
:1017A00041F20902002103F027F841F269020546DF
:1017B0000021204603F020F880B208B9EDB215B13F
:1017C000204600F095FD204603F000FF0025064668
:1017D000B5423FF40FAFA3681B6853F8250000F033
:1017E00087FD0135F4E741F20102002103F004F81E
:1017F00041F2040200210646204602F0FDFF41F2BC
:10180000090200210546204602F0F6FF41F2690276
:1018100007460021204602F0EFFF80B250B9FFB228
:1018200047B936B242F2D1739E4203D02DB29D42E7
:101830007FF4E0AE204605B0BDE8F04000F058BDB2
:101840002846FEF79FFF00210546204600F0E4FBF6
:10185000B5F900308342B8BF03462B80CAE628465C
:1018600005B0BDE8F040FFF747BB000010B50846E3
:101870000C46FEF78BFF002002F0B8FF144A00214F
:10188000204603F077FA012002F0B0FF0021204645
:1018900018F04AFA2046FFF73DFE10B12046FFF748
:1018A000C8F8A3689BB1186820B119F013F9A368B0
:1018B00000221A60A368D86820B119F00BF9A36858
:1018C0000022DA60A06819F005F90023A36010BDBA
:1018D000FFFF0F00836810B504469BB90A4A1368DE
:1018E0001C200133136019F07BFAA06000B9FEE7F9
:1018F0001C2119F0EFFAA268138B43F4706343F0D4
:101900000303138310BD00BF7401002018B10068E9
:10191000431A58425841704770B505682B68044611
:1019200013B10360FFF7F8FF6B68256023B1214610
:101930002846BDE87040184770BD0000334AF8B52E
:101940000E460746014639B18D692A4202D0C5F3D9
:101950000F1502E00968F6E70D46284619F040FA2F
:10196000044610B900242046F8BD294619F0B2FA01
:10197000C4E9007646BB18F051F805460028F1D0BE
:10198000C06898B9042019F02BFA0123E8600460BC
:101990006B6200256561284618F046F801382083FF
:1019A000284618F051F801386083DCE7696A013194
:1019B0006962890019F02AFA6B6AE86003F18043D2
:1019C000013B40F82340E4E7B36813B93046FFF722
:1019D00081FFB568286848B9042019F001FAB36896
:1019E00028601A68146001225A60BCE769680131F6
:1019F0006960890019F00AFAB268286053681268B1
:101A000003F18043013B42F82340ACE7F0FF0F00B5
:101A100010B50446206883680BB1214698472368B7
:101A20001B680BB12360F5E710BD006830B1037E81
:101A300013F00303F9D0013B584258417047006846
:101A400030B1037E13F00C03F9D0043B58425841E7
:101A5000704738B5044600F04BFC002002F0C6FE8B
:101A6000204604F05FFD2046FFF756FF012002F0FC
:101A7000BDFE4FF6FF724FF47021204602F0AEFF1C
:101A8000204600F058FDFEF775FF024638B12046AB
:101A9000FFF7D5FF18B121461046FEF795FF204607
:101AA00003F082FD054668B122462221FEF742FE80
:101AB000224628462321FEF73DFE2046BDE8384059
:101AC00000F004BE38BD08B540F2624202F094FE58
:101AD000C0B208BD08B5682202F08EFEC0B208BDD3
:101AE0002DE9F0411446602206460D4602F084FEC0
:101AF0002080BDB129463046FFF7E5FF80462946E4
:101B00003046FFF7E0FF0228074602D9B8F1020F7E
:101B10000BD80023E37084F8223084F8363084F840
:101B20002A3047E14FF0FF08E9E729463046FFF742
:101B3000D1FFE378A07003B321222946304602F09A
:101B40005BFEC0B20228E07017D944F22002294699
:101B5000304602F051FE2946A0802622304602F08F
:101B60004BFE0146002800F0DD80437A5A0700F062
:101B7000D9800A22201D18F0E9FF41F232022946DD
:101B8000304602F039FE00B22084F0B194F82230E1
:101B9000DBB131222946304602F02EFEC0B20228C7
:101BA00084F8220011D933222946304602F024FE5F
:101BB00094F8233060F3450384F8233044F2300274
:101BC0002946304602F018FEE08340F63A022946E4
:101BD000304602F011FE00B2E084D8B194F82A3009
:101BE000C3B140F63C022946304602F005FEC0B2C1
:101BF000022884F82A000DD940F63D0229463046D5
:101C000002F0FAFD44F23B0220852946304602F0FC
:101C1000F3FDA084A37E23B340F628022946304674
:101C200002F0EAFD2061E0B129222946304602F0A7
:101C3000E3FDC0B20228A07613D9206904F022FF88
:101C4000022840F09E8041F259422946304602F077
:101C5000D3FD44F2574260612946304602F0CCFD84
:101C6000208394F836309BB34FF404622946304603
:101C700002F0C2FD00B2E08550B394F83630022B7A
:101C800026D940F645022946304602F0B5FDC0B2DD
:101C9000022884F836001BD940F641022946304616
:101CA00002F0AAFD40F6420220862946304602F0A4
:101CB000A3FD40F6430260862946304602F09CFDB3
:101CC00044F24402A0862946304602F095FDA085E4
:101CD000B8F1FC0F6CD818FB07F8C8F30727E378B6
:101CE00013FB07F3C3F30723E370A37E13FB07F390
:101CF000C3F30723A37694F8223013FB07F3C3F34F
:101D0000072384F8223094F8363013FB07F3C3F32B
:101D1000072384F8363094F82A3013FB07F3C3F313
:101D20000723FCE623222946304602F065FD637B4B
:101D300060F3020363735B0719D044F22002294663
:101D4000304602F059FD44F22202A0802946304676
:101D500002F052FD242220812946304602F04CFD3B
:101D60002522A0712946304602F046FDA0722722A6
:101D70002946304602F040FD637B60F3C503637380
:101D8000FBE644F22A022946304602F035FD2B22BA
:101D900020832946304602F02FFD2C22E07629468A
:101DA000304602F029FD003818BF0120207758E79F
:101DB000FC2F94D9BDE8F08170B514464FF48B62C6
:101DC00005460E4602F018FDC0B20228A07643D99F
:101DD00031462846FFF777FEFC289FBFA37E13FB02
:101DE00000F0C0F30720A076A37E022B34D944F282
:101DF00057423146284602F0FFFC41F25A42A08188
:101E00003146284602F0F8FC41F25B42A08231469E
:101E1000284602F0F1FC40F25C42608231462846DE
:101E200002F0EAFCA37F60F30203A3773146284661
:101E3000FFF750FEA37F60F3C503A37741F2594239
:101E40003146284602F0D8FC41F25D42206031461E
:101E5000284602F0D1FC207770BD70B514464622AA
:101E600005460E4602F0C8FCC0B20228E0723CD91A
:101E700031462846FFF727FEFC289FBFE37A13FB75
:101E800000F0C0F30720E072E37A022B2DD94FF067
:101E9000807323602B8BAA8A01339B1AC3F3C03251
:101EA00002FA83F35B10A3806B8BEA8A01339B1ADF
:101EB000C3F3C03202FA83F35B10E3804822314659
:101EC000284602F099FCC0B2A07230B144F2470239
:101ED0003146284602F090FC208131462846FFF723
:101EE000F9FD237B60F30303237370BD70B51446C3
:101EF00040F6490205460E4602F07EFC00B26080C4
:101F0000002842D04E223146284602F075FCC0B26D
:101F10000228207239D931462846FFF7D4FDFC2823
:101F20009FBF237A13FB00F0C0F307202072237AAF
:101F3000022B2AD944F24D023146284602F05CFCBD
:101F40004A2220803146284602F056FC00B2A0808A
:101F500028B14B223146284602F04EFCE0804C224C
:101F60003146284602F048FC637A003818BF012049
:101F700060F3820360F3C303637231462846FFF7C0
:101F8000A9FD637A60F30103637270BD70B51446F6
:101F90004FF4056205460E4602F02EFC00B260804A
:101FA000002838D053223146284602F025FCC0B222
:101FB000022820732FD931462846FFF784FDFC28DC
:101FC0009FBF237B13FB00F0C0F307202073237B0C
:101FD000022B20D944F252023146284602F00CFC72
:101FE000542220803146284602F006FC5122A0608F
:101FF0003146284602F000FC637B003818BF012000
:1020000060F38203637331462846FFF763FD637B09
:1020100060F30103637370BDF8B54FF404620546C5
:102020000E4602F0E9FB07B2A7BB002440F63A02D5
:102030003146284602F0E0FB07B2A7B140F63C0269
:102040003146284602F0D8FBC0B202280BD940F630
:102050003D023146284602F0CFFB07FA80F0A0424D
:10206000B8BF204604B2314640F60A02284602F0C4
:10207000C3FB40F60B0207B23146284602F0BCFB18
:1020800000B2B842B8BF38460028C4BF001904B235
:102090002046F8BD40F645023146284602F0ACFB2A
:1020A000C0B20228C1D940F643023146284602F0A8
:1020B000A3FB40F64102441C3146284602F09CFB3B
:1020C00007EBD77704EB670440F6420207B23146CC
:1020D000284602F091FB00B20028B8BF4042002F12
:1020E000B8BF7F42A4B280B2BFB2B8422CBF24189E
:1020F000E41924B224EAE47498E738B504460D469E
:10210000482118F0E7FE256038BD806808B1B0F9B5
:102110001600704737B50446FFF7F7FF0023054662
:102120000DF1060213212046ADF80630FEF702FB42
:10213000BDF90630AB4202D0204600F0C7FAA268D3
:10214000BDF906304AB1D382BDF90630AB4202D0A8
:10215000204600F0BBFA03B030BD002BF4D020467F
:10216000FFF7B8FBA368BDF80620DA82ECE708B5F4
:1021700041F26A42002102F03FFBC0B208BD08B53F
:1021800041F23202002102F037FB00B208BD08B56F
:1021900041F61302002102F02FFB00B208BD08B582
:1021A00041F61202002102F027FB00B208BD08B57B
:1021B00041F61102002102F01FFB00B208BD08B574
:1021C00041F61002002102F017FB00B208BD37B53E
:1021D00000230C4601AA41F20701054602F015FF53
:1021E000012804D1019BA34203D103B030BD0028D4
:1021F000FBD100222146284603F036F9F5E737B532
:1022000000230C4601AA41F20801054602F0FDFE3A
:10221000012804D1019BA34203D103B030BD0028A3
:10222000FBD100222146284603F024F9F5E738B512
:1022300004461546FFF7CBFF29462046BDE8384047
:10224000FFF7DDBF37B500230C4601AA41F20101BB
:10225000054602F0DAFE012804D1019BA34203D116
:1022600003B030BD0028FBD100222146284603F0F0
:10227000E9F8F5E737B500230C4601AA41F204015D
:10228000054602F0C2FE012804D1019BA34203D1FE
:1022900003B030BD0028FBD100222146284603F0C0
:1022A000DDF8F5E738B504461546FFF7CBFF2946BC
:1022B0002046BDE83840FFF7DDBF000038B50B49C8
:1022C0000546FFF71FF9044608B1002038BD28462F
:1022D00003F06AF90028F8D041F26902214602F0C1
:1022E0008BFA80B2003818BF0120EFE7010006002A
:1022F00090F8222042F0010208B580F8222003F075
:102300002CF990F8222042F0020280F8222003F0FB
:102310002DF9406818B1BDE8084019F0A6BD08BD08
:1023200010B50022044689B203F00BF92046BDE83F
:102330001040FFF7DDBF0000F8B50C4E0C4F3368BE
:10234000013305460C4638683360D90018F05EFD4D
:102350000346386000B9FEE7306800F10052013AE8
:1023600003EBC20143F832504C60F8BD7C01002001
:10237000FC04002070B5044615461E46002203F0FA
:102380007FF8324629462046BDE87040FFF74FBF30
:10239000B0F914300B80B0F916304B80B0F918301A
:1023A0008B80B0F91A30CB80704738B5044603F003
:1023B000FBF8054690B1838AA48AE41A01F058F923
:1023C000A4B204442846FFF7EAFEA4B2241A284621
:1023D000FFF7D5FEA4B2201A00B238BDB4F914003C
:1023E000FBE738B5044603F0DFF8054690B1C38A31
:1023F000E48AE41A01F04EF9A4B204442846FFF737
:10240000DEFEA4B2241A2846FFF7B9FEA4B2201AB1
:1024100000B238BDB4F91600FBE710B50446FFF76B
:10242000E0FF638BE28A01339B1A184400B210BDAF
:10243000038B828A0133981A00B27047438BC28A99
:102440000133981A00B2704770B50446FFF7A7FE33
:1024500006462046FFF79BFE05462046FFF78FFE07
:10246000238BA28A01339B1A9B1B5B1BA3EB4000AF
:1024700000B270BD70B50446FFF7A1FE06462046C7
:10248000FFF795FE05462046FFF779FE638BE28A4B
:1024900001339B1A9B1B5B1BA3EB400000B270BD7A
:1024A00038B505460C46FFF76AFEB5F914302380AF
:1024B000B5F9163063804242B5F91830A38012B2E4
:1024C000B5F91A30E3801146204617F036FD28464C
:1024D000FFF765FE2388184420802846FFF757FE43
:1024E000A3881B1AA3802846FFF769FE6388184457
:1024F00060802846FFF75BFEE3881B1AE38038BD47
:1025000007B5054B019301AA2C21FEF713F9BDF97C
:10251000040003B05DF804FB000001E007B54EF2D3
:10252000010301AA2C210193FEF704F9BDF906006D
:1025300003B05DF804FB38B541F201020021044606
:1025400002F05AF941F2040205B20021204602F0DD
:1025500053F942F2D1739D4200B201D0984204D1A6
:102560002046FFF7C5FE012038BD0020FCE72DE91D
:10257000F74F0E4617468046019303F027F80025D3
:1025800081461FFA86FA1FFA87FB4D4502D103B038
:10259000BDE8F08FD8F808301B6853F82540019B40
:1025A0009BB9A38A5344A382E38A5B44E382238BCF
:1025B00053442383638B5B4463833A460023314651
:1025C0002046FFF7D4FF0135DFE74FF48021204696
:1025D000FEF792FF0028E4D0F5E7F7B50D4601219C
:1025E0000446FEF789FF002843D1204602F0B5FFDC
:1025F000064602F0BBFF0746FDF7CAFF864229D117
:102600004FF400212046FEF777FFE0B92046FFF7A0
:102610007CFDB4F91620B4F91830B4F91A60A18A17
:1026200080B2121A091A03443044ADF80220ADF802
:102630000010ADF80430ADF806006A462946284679
:1026400017F09BFCA8B1204602F0AEFF044698B9F3
:1026500001200FE03846FDF7A2FF8642D0D0384671
:10266000FDF7A4FF8642CBD03846FDF7A6FF864291
:10267000C6D0002003B0F0BD01212046FEF73CFF8C
:102680000028F6D14FF400212046FEF735FF002840
:10269000D9D104F11402D1E713B50B88ADF800309D
:1026A0004B88ADF802308B88ADF80430CB88ADF89C
:1026B000063069460446FFF790FF28B1204602F035
:1026C00055FF694603F0BEFC02B010BD37B50446A5
:1026D00002F06AFFE0B92046FFF717FDB4F91620B3
:1026E000B4F91830B4F91A50A18A80B2121A03440E
:1026F000091A2844ADF80010ADF8060069462046D6
:10270000ADF80220ADF80430FFF7C6FF03B030BDCE
:102710004FF400212046FEF7EFFE0028DBD02046D4
:1027200002F042FFD3E72DE9FF474668044616B39F
:1027300030468DB297B2FFF732FD82463046FFF742
:102740003EFD4FF4802181462046FEF7D5FE00284D
:102750006CD0B38A2B4403EB0A00F38A3B444B440E
:1027600005B21FB23046FFF70AFD15FA80F117FADD
:1027700080F209B212B2A38AC91AE38AD21A1FFAE6
:1027800081F81FFA82FA58EA0A030DB217B24AD04A
:102790002046FFF79BFFA38AADF80030E38AADF82F
:1027A0000230238BADF80430638BADF806306EB188
:1027B00002A93046FFF774FE002202A9684617F00E
:1027C000DBFC814620B9304601F0E8FE4FF00009FD
:1027D000A38A4344A382E38A5344E382238B98442D
:1027E000638BA4F818809A44A4F81AA000233A46F0
:1027F00029462046FFF7BBFE26B12246222130465D
:10280000FDF798FF2046FFF761FF66B1002202A99D
:1028100004F1140017F0B0FCB9F1000F00D110B1B1
:10282000304601F0BBFE04B0BDE8F0873046B6F993
:10283000148000F01DFFD044A8EB0008304645444A
:10284000B6F9168000F026FFC844A8EB00084744FC
:102850002DB23FB286E700002DE9F04F87B08046E9
:10286000FFF72CFD0546002840F02581404602F088
:102870009BFE2946009041F20702404601F0BCFF52
:10288000294604B241F20802404601F0B5FF009B20
:1028900005B23BB92A462146404607B0BDE8F04F95
:1028A000FFF741BF0098FFF7CFFD07460098FFF7FD
:1028B000E1FD04F4C043B3F5005F06460ED124F4F5
:1028C000C043B3F5FA6F09DCB3F57A7FC8BFC3F52F
:1028D0007A737B43642293FBF2F31CB205F4C0438A
:1028E000B3F5005F0ED125F4C043B3F5FA6F09DCF0
:1028F000B3F57A7FC8BFC3F57A737343642293FB41
:10290000F2F31DB243F20C020021404601F074FFC5
:1029100043F20D020FFA80FB0021404601F06CFFEC
:10292000B8F814300193B8F81830019A01339BB20B
:10293000A3EB020A0493B8F816300293B8F81A30E1
:10294000029A01339BB2A3EB020903930BF4C04339
:10295000B3F5005F00B20FFA8AFA0FFA89F910D1C5
:102960002BF4C043B3F5FA6F0BDCB3F57A7FC8BF25
:10297000C3F57A7303FB0AF3642293FBF2F30FFAB5
:1029800083FB00F4C043B3F5005F0FD120F4C043D4
:10299000B3F5FA6F0ADCB3F57A7FC8BFC3F57A7373
:1029A00003FB09F3642293FBF2F318B25C44A3B275
:1029B000054441F2090200214046059301F01CFF45
:1029C00010F0FF001FFA85FB059B24B22DB20CD13D
:1029D00000980293FFF7CBFB0128029B7FF45AAFCC
:1029E000019A0499541A3C4421E001283FF452AF63
:1029F000023807283FF64EAF01A252F820F000BF80
:102A0000212A0008E1290008472A0008352A000881
:102A1000552A00087B2A00086F2A00088B2A000824
:102A20000AEBDA7407EBD7776410C4EB67041C4435
:102A300024B22FE70AEBDA7407EBD7776410C4EB04
:102A400067041C4424B2DDE902329D1A35445D441A
:102A50002DB21FE7019A0499541A3C441C44DDE945
:102A600002329B1A33445B4424B21DB212E7019A2E
:102A70000499521A3A4413441CB209EBD97506EB77
:102A8000D6766D10C5EB6605E1E70AEBDA7A09EB5D
:102A9000D97907EBD7774FEA6A0A06EBD6764FEA81
:102AA0006909CAEB670AC9EB66095344CB441CB2F7
:102AB0000FFA8BF5EEE607B0BDE8F08F37B50446A8
:102AC000FFF723FBB4F91610B4F91820B4F91A5023
:102AD00083B2A08AC91AC01A1A44ADF80000ADF832
:102AE00002102B4469462046ADF80420ADF80630AC
:102AF000FFF773FD03B030BD38B505460C46FEF751
:102B0000E9FEAB689C8238BD8368B0F9162070B5C9
:102B1000B0F91450B0F91840B0F91A600D804A802D
:102B20008C80CE8043B19B8AED1A1C44D21A334468
:102B30000D808C804A80CB8070BD30B5044608463D
:102B400001F4C041B1F5005F0ED120F4C041B1F5F0
:102B5000FA6F09DCB1F57A7FC8BFC1F57A716420DC
:102B6000594391FBF0F108B202F4C041B1F5005FA6
:102B70000FD122F4C045B5F5FA6F0ADCB5F57A7FBE
:102B80002A46C8BFC5F57A725343642293FBF2F319
:102B90001AB2A242A8BF22469042B8BF104630BD2A
:102BA0002DE9F04F90F8233003F00603062B8FB089
:102BB000044603D100200FB0BDE8F08F02F0F4FC12
:102BC00007460028F6D0204600F0CCFD94F823609C
:102BD000059016F0040679D0268BA38A0136F61AE2
:102BE000002336B20193204600F066FD94F823508E
:102BF000069015F0020500F09781658BE38A013598
:102C0000ED1A019B2DB2002B40F0FE81238BA28A8E
:102C100001339B1A1BB29E4206D1638BE28A0133B9
:102C20009B1A1BB29D42C5D02046FFF74FFDA38AD9
:102C3000ADF82830E38AADF82A30238BADF82C307C
:102C40000CA9638BADF82E303846FFF729FC002223
:102C50000CA90AA817F090FA04F11409804610B9DB
:102C6000384601F09BFCE38A013B2B4463832046FA
:102C7000FFF77DFA01280BBF238BA38A013303F1F1
:102C8000FF33B6B20BBF9B1BF618A38226830AAA9A
:102C900029212046FDF74EFD224622213846FDF728
:102CA00049FD2046FFF712FD0021204601F096FC69
:102CB00000220CA9484617F05FFAB8F1000F00D1C6
:102CC00010B1384601F06AFC012074E7314641F248
:102CD0000102204601F090FD42F2D17305B2E91ADB
:102CE0004B424B41019305F4C043B3F5005F06D15D
:102CF00025F4C046B6F5FA6FCCBF0026012638464B
:102D0000FFF7A2FB42F2D1784545029040F0DF8008
:102D100000221146204601F083F82046FFF72FFAE3
:102D200006462046FFF733FA1FFA86F910FA86F6B0
:102D30002046FFF734FA81442046FFF7E1FBB6B2A4
:102D40001FFA89F906EB09050544204602F03EFC0E
:102D500003902046FFF70BFA01282DB20FD00FFA8F
:102D600089F3DFF8F88204934FF0000A039B534580
:102D70006ED1BA4B984517D0464436B20EE033B206
:102D8000DFF8D88204934FF0000A039B534520D10B
:102D9000B24B984508D0C8440FFA88F6AF4B9E4214
:102DA00002D0B542B8BF354641F2020200212046AA
:102DB00001F022FD41F2030206B20021204601F09B
:102DC0001BFD314602B2029B2846FFF7B6FE0646BF
:102DD00009E7A368A2491B6853F82AB05846FEF7D2
:102DE00091FB90BB5846FFF769FA014660B941F282
:102DF0000902584601F000FDC0B208280ED840F282
:102E00004912C240D20709D5B4F91820BBF91430D1
:102E1000D31A01334345B8BF434614E041F20702D9
:102E20000021584601F0E8FC00B270B9BBF8182048
:102E3000BBF8143004990132D31A9AB201FA83F321
:102E4000984502DCB3180FFA83F80AF1010A9CE7EF
:102E5000A36883491B6853F82AB05846FEF752FB13
:102E600090BB5846FFF72AFA014658B941F20902C9
:102E7000584601F0C1FCC0B207280DD89322C240C9
:102E8000D30709D5BBF91830B4F914209B1A0133C4
:102E90004345B8BF434615E041F2080200215846B9
:102EA00001F0AAFC00B278B9BBF81820BBF81430C6
:102EB00004990132D31A9AB201FA83F3984503DCDC
:102EC00009EB02030FFA83F80AF1010A4EE7002E1C
:102ED0003FF46AAF97F8231011F0040117D141F2C3
:102EE0000102384601F088FC00B240450FD120466F
:102EF000FFF745F906462046FFF751F985192046A8
:102F0000FFF745F9ADB2304405442DB24CE725F446
:102F1000C045029BB5F57A7FC8BFC5F57A755D439C
:102F2000642395FBF3F5F0E741F2040229462046BD
:102F300001F062FC0FFA80F900F4C040B0F5005FC8
:102F400006D129F4C045B5F5FA6FCCBF002501259F
:102F50003846FFF78FFA42F2D178C145029040F02F
:102F60009B8000221146204600F070FF2046FFF7AC
:102F700006F905462046FFF722F91FFA85F810FAF0
:102F800085F5ABB2039320462BB20793FFF70FF9F9
:102F900080441FFA88F320460493FFF7BFFADDE967
:102FA00003329D180544204602F010FBDFF8AC8088
:102FB00008902DB24FF0000A089B53452BD1274BA8
:102FC000984505D0049B43441BB29D42B8BF1D46A3
:102FD00041F205020021204601F00EFC41F20602FA
:102FE0000FFA80F80021204601F006FC029B02B295
:102FF00041462846FFF7A1FD019B054623B942F251
:10300000D17399457FF402AEDDE905120023204615
:1030100000F032FFFAE5A36811491B6853F82AB0A3
:103020005846FEF76FFAA0BB5846FFF747F901462E
:1030300048B9099041F20902584601F0DDFBC0B2DF
:10304000032809990ED8BBF91A30B4F916209B1A37
:1030500001334345B8BF434619E000BF01E0FFFF1D
:103060000100040041F20802584601F0C5FB00B21D
:1030700078B9BBF81A20BBF8163007990132D31A79
:103080009AB201FA83F3984503DC039B13440FFAC9
:1030900083F80AF1010A8FE755B397F8231011F06E
:1030A000020118D141F20402384601F0A5FB00B23A
:1030B000404510D12046FFF762F880462046FFF7D2
:1030C0007EF800EB08052046FFF771F8ADB24044EA
:1030D00005442DB27CE729F4C045029BB5F57A7F03
:1030E000C8BFC5F57A755D43642395FBF3F5F0E73A
:1030F0004D466DE770B5044602F068FA00250646B5
:10310000B54228D194F82230DA072CD56FF30003AA
:1031100084F822302046FFF743FD2046FFF79CFB52
:103120000DB341F269020021204601F065FB83B234
:10313000CBB10D4A12689A4215D30C4A03F10053E1
:103140001268013B02EBC301204652F83330496854
:10315000BDE870401847A3681B6853F82500FFF7C7
:10316000C9FF0135CCE770BD7C010020FC040020C4
:1031700038B50B4D2B7853B901232B7002F0EDF9C4
:10318000044694F8223013F0020201D12A7038BDAF
:103190006FF3410384F822302046FFF7ABFFF0E7DE
:1031A000790100202DE9F04F85B08A460193BDF9E1
:1031B0003830039304469146FFF7DAFFBAF1000F67
:1031C00003D1204602F0F0F98246204602F0ECF9E5
:1031D0000546FEF7D4FF80462846FEF7E0FF1FFABB
:1031E00088F610FA88F80FFA88F328460093FEF75D
:1031F000E6FF064433B250460293FEF7C0FF07468F
:103200005046FEF7CCFF10FA87F35046BEB20FFAD5
:1032100083F89FB2FEF7D3FF321896B20FFA82FB03
:10322000B9F1000F0ED15046FEF7A1FF012878D169
:103230005046FFF709F9A38A268B013B9B1B3B44B1
:1032400003446CE009F1FF39B9F1140F2CD801A047
:1032500050F829F023330008FD320008313200080D
:10326000B13300088B330008C9330008D932000895
:10327000DD330008B33200081B340008293400088D
:10328000613400087534000881340008BB3400083C
:10329000CF340008E1340008193500083335000840
:1032A0003F3500084B3500084FF0000B4FF0000889
:1032B00037E05046FFF7C8F8238BA28A01339B1AE8
:1032C000C3F3C03202FA83F3A7EB630300EBD070C1
:1032D00003EB60030FFA83F85046FFF7CBF8628BDD
:1032E000E78A0132D21BC2F3C03707FA82F2A6EB9B
:1032F000620200EBD07002EB600262E05046FFF722
:10330000A3F8238BA68A01339B1BC3F3C03606FAAE
:1033100083F3A7EB630300EBD07003EB60030FFABA
:1033200083F82846FEF723FFBAF91430019A0128E2
:10333000B5F914001344A3EB00071FFA88F62846DA
:1033400040F0098100F078FA009B3844C01A3044FC
:1033500006B2039BBAF916701F44B5F91630284619
:10336000FF1A00F0A9F9029BC519ED1A20460022A8
:10337000012102F085F85D44ADB22AB23146204603
:1033800005B0BDE8F04FFEF752BF5046FFF75CF8BE
:10339000238BA28A01339B1AC3F3C03202FA83F350
:1033A000A7EB630300EBD07003EB60030FFA83F825
:1033B0005046FFF75FF8E28A678B013AD21B32442E
:1033C00002440FFA82FBACE75046FFF73DF8A38AB0
:1033D000228B013B9B1A3B440344E7E75046FFF72F
:1033E00033F8A38A228B013B9B1A1F4407445046A3
:1033F000FFF740F8628B0FFA87F8E78A0132D21B99
:10340000C2F3C03707FA82F2A6EB620600EBD07077
:1034100006EB60060FFA86FB83E7E28A638B013ACC
:10342000D21A0FFA82FB41E7BAF81830BAF8142022
:10343000A08A01339B1AC3F3C03202FA83F2238BB2
:1034400001331B1AC3F3C03000FA83F35B10C3EBE4
:103450006203E28A608B0FFA83F8013A121AB0E72E
:10346000228BA38A9B1ABAF818201344BAF81420A6
:103470009B1AEEE7BAF81A20BAF816300132CFE7F5
:10348000BAF81830BAF81420A08A01339B1AC3F393
:10349000C03202FA83F2238B01331B1AC3F3C0300C
:1034A00000FA83F35B10C3EB6203BAF81A200FFA39
:1034B00083F80132BAF81600D0E7228BA38A9B1A50
:1034C000BAF818201344BAF814209B1AEDE7A38A1F
:1034D000228B013B9B1A0FFA83F84FF0000B20E779
:1034E000A38A228B013B9B1ABAF81A20BAF816005D
:1034F000E68A0132121AC2F3C03000FA82F0628BFF
:103500000132921BC2F3C03606FA82F252100FFA51
:1035100083F8C2EB600254E7A38A228B013B608BE5
:103520009B1AE28A121ABAF81A000FFA83F80244B8
:10353000C0E7BAF81830BAF814200133CAE7BAF86D
:103540001830BAF814200133CDE7BAF81830BAF8B9
:1035500014200133E3E700F005F9009B3844C01A5A
:10356000064436B2F5E600BF08B541F26A4201F002
:1035700043F9C0B208BD51EA020370B504460D46D6
:1035800016461AD0FEF7A6F9A3681A8A2A441A82A8
:103590005A8A32445A822946012332462046FEF78F
:1035A000E6FF00220B212046FDF7C4F8012804D1D4
:1035B0002046BDE87040FFF789B870BD0068002262
:1035C0000A21FDF7B7B838B504460D46FEF782F973
:1035D000A268137E03F00301A94207D065F301033B
:1035E00013762046BDE83840FFF770B838BD38B5CF
:1035F00005460C46FEF76EF9AA68537E03F00F01EC
:10360000A1421CBF64F30303537638BD38B50546A9
:103610000C46FEF75FF9AB681A7E64F383021A76F4
:1036200038BD38B505460C46FEF754F9AB681A7E2E
:1036300064F305121A7638BD83681BB1187E00F05A
:10364000030070470320704783681BB1587E00F069
:103650000F0070470F207047806810B1007EC0F3E4
:1036600081007047806810B1007EC0F30110704780
:10367000806810B1008A404200B2704708B5034626
:10368000FFF7F6FF01440022184609B2BDE80840E2
:10369000FFF771BF806810B1408A404200B27047A6
:1036A00008B50346FFF7F6FF421812B2184600218C
:1036B000BDE80840FFF75FBFFFF7ECBF2DE9F84317
:1036C000064601F083FF254DDFF89490074600245D
:1036D000BC4233D141F610020021304601F08CF893
:1036E00041F6110200210446304601F085F841F20E
:1036F000320207460021304601F07EF8174B9D420A
:10370000804604D0728B3B189B1A2B441DB2304666
:10371000FEF704FF81463046FEF790FEE31903EB07
:1037200048034B441B1A3046FFF7B4FF9BB2181AEC
:1037300000B2A842B8BF2846BDE8F883B3681B684A
:1037400053F8248049464046FDF7DCFE20B9B8F91D
:103750001A309D42B8BF1D460134B9E701E0FFFFB2
:10376000010004002DE9F84F00210546FFF7FCFE9B
:10377000012806D0A86810B1008A404200B2BDE816
:10378000F88F41F613020021284601F035F841F682
:10379000120200210746284601F02EF8002141F2CE
:1037A00032020446284601F027F88046284601F0F8
:1037B0000DFF1F49824641F6FF790026B24527D109
:1037C00041F6FF73994514BFAB8A1A4EA4B21FFA93
:1037D00088F81EBF04EB0806F618A6EB0906284673
:1037E00018BF36B2FEF78CFE81462846FEF720FE53
:1037F0003C4403462846FFF73BFF04EB48044C4497
:10380000A4B20444E01A00B2B042B8BF3046B6E7F2
:10381000AB681B6853F826B05846FDF773FE0449A1
:1038200020B9BBF914309945A8BF99460136C5E7C0
:103830000100040001E0FFFF2DE9F84300210646E6
:10384000FFF792FE012805D1B06808B1B0F9100069
:10385000BDE8F883304601F0B9FE254DDFF89490BD
:1038600007460024A74232D141F613020021304618
:1038700000F0C2FF41F6120200210446304600F07B
:10388000BBFF41F2320207460021304600F0B4FF90
:10389000174B9D42804604D0328B23189B1A2B4431
:1038A0001DB23046FEF72CFE81463046FEF7C0FDC5
:1038B000E31903EB48034B441B1A3046FFF7D8FECD
:1038C0009BB2181A00B2A842B8BF2846C0E7B36836
:1038D0001B6853F8248049464046FDF713FE20B983
:1038E000B8F918309D42B8BF1D460134BAE700BF91
:1038F00001E0FFFF0100040038B50C460D49054604
:1039000016F080FA68B1436A5B4218B220800A4917
:10391000284616F077FA40B1406A404200B2608013
:1039200038BD2846FFF7A4FEF0E72846FFF7B2FEB1
:10393000F5E700BF7D360008A13600082DE9F0410B
:10394000164651EA060290B004460D465DD0012BA2
:103950005ED101F00BFE0746684616F0CBF93A4BF4
:103960000094039345B3384616F05EF82A460021CA
:1039700040F35D0016F05EFAB0F5C87F034628BF3D
:103980004FF4C873C82B38BFC82320460A93FFF7EB
:103990006FFE4342CDE90733281A2C4B099001935F
:1039A0006A462B4B069309212046FCF7C3FE0128EB
:1039B0002BD1684616F0E4F93EB3384616F044F8C9
:1039C0003246002140F35D0016F034FAB0F5C87FAE
:1039D00028BF4FF4C870C82838BFC8200A902046B6
:1039E000FFF758FE4342CDE90733301A194B0990CF
:1039F00001936A46164B069309212046FCF79AFE6E
:103A0000012802D1684616F0BBF910B0BDE8F0817C
:103A1000104916F089F90D498046204616F084F9C0
:103A20003246074629462046FFF7A5FDB8F1000FAC
:103A300001D1002FE9D000220A21204610B0BDE8B4
:103A4000F041FCF777BE00BFBD3500087D360008A9
:103A5000519E0108A13600082DE9F047994651EA28
:103A6000020307460C46154658D0FFF781FB38463F
:103A7000FFF7FEFD00211FFA80F83846FFF774FDBE
:103A8000A4EB0804012824B233D0002C42DA3846D3
:103A9000FFF768FE06463846FFF7CEFE321812B230
:103AA00022EAE2725242944200DA14B23846FFF738
:103AB000F1FD86B2AD1B2DB2002D2DDA3846FFF791
:103AC000FDFD33181BB223EAE3735B429D4200DA2B
:103AD0001DB208EB0401721989B292B251EA0203D5
:103AE0001CD04B46384612B2BDE8F04709B2FFF78A
:103AF00025BF002C0EDD3846FFF734FE064638465B
:103B0000FFF79AFE064436B226EAE676B442A8BF2C
:103B10003446CBE70024C9E70025DAE7BDE8F087A3
:103B20002DE9F04F8BB00746084602919146049369
:103B300001F03AFD10210546FDF7DEFC002800F0FB
:103B400064812846FFF780FD00902846FFF78AFD34
:103B50008346002800F0DE80029B03F1140A41F244
:103B600032020021284600F047FE41F610020646C8
:103B70000021284600F040FEB3B241F6110210FACF
:103B800086F600212846019300F036FE019BB9F825
:103B90000280BAF806100891184483B20393B6B2B3
:103BA000EB8AA6EB08041C44BAF80230E41AA3B26C
:103BB000059318FA80F86B8B09931FFA88F8A8EB25
:103BC00003020A4412B228460792FEF737FC24B2D9
:103BD000002CDDE90721099B0690C0F2A880002A8D
:103BE000C0F29A800024BBF1020F00F0AE80BBF15E
:103BF000030F00F0B080BBF1010F05D1EC8ABAF8D9
:103C000002303444E41A24B22846FFF725FD8246E8
:103C100008B1029F143741F612020021284600F035
:103C2000EBFD019B41F6130203EB0008002128463F
:103C300000F0E2FD019BB9F80010B7F804C0184489
:103C40001FFA88F8AB8AA8EB01061E443B881FFACE
:103C500080FBF61A11FA80F02B8B80B2B2B2C11A37
:103C600036B26144002E09B2C0F29D800029C0F234
:103C70008D8000262846FEF7DBFBBAF1020F00F02C
:103C8000A080BAF1030F00F0A180BAF1010F04D1B6
:103C9000AE8A3B884644F61A36B25F49284616F08B
:103CA00043F85E490746284616F03EF8002F40F0DC
:103CB000A480002840F0A180009BD80740F1A88094
:103CC000009B9907009B58BF06EAE6765A07009BBF
:103CD000049A58BF24EAE4741B0758BF04EAE4744A
:103CE000B9F80030002A14BF324600221344A9F864
:103CF0000030B9F8023014BF224600221344A9F85C
:103D00000230049B2246314628460BB0BDE8F04FF6
:103D1000FFF714BEBA4622E7002C3FF463AF2846F3
:103D2000FFF7B8FC059B9842BFF65DAF5AE7002A43
:103D30007FF758AFA3EB08035B1A28461CB2FFF7C6
:103D4000BDFCE0427FF54FAF4CE7039B6C8BE41A60
:103D5000BAF8063056E7039B0699BAF802203344B6
:103D6000CB1AC3F3C03101FA83F3E98A0E44B61AC1
:103D700006EB6306BAF8063001339B1AC3F3C03270
:103D800002FA83F3A6EB630634B23DE7002E3FF45C
:103D900070AF28460192FFF7E5FC019A1044002815
:103DA0003FF767AF66E700297FF763AF1B1AA3EB06
:103DB0000C0328461EB2FFF73FFDF0427FF55AAFD5
:103DC00057E72E8BBB88A6EB0B0664E7BB883A88C7
:103DD000AE8A013346449B1AB61AD844C3F3C032A4
:103DE00002FA83F3A0EB0800A6EB6306C0F3C0332E
:103DF00003FA80F006EB60064EE700220A2128460F
:103E0000FCF798FC01283FF457AF0BB0BDE8F08FEA
:103E100026EAE67654E700BFA13600087D360008A2
:103E200070B504460E460849154615F07DFF20463C
:103E3000FFF71EFC811B2B4620460022BDE8704088
:103E400009B2FFF709BE00BF7D36000870B5044611
:103E50000E460849154615F067FF2046FFF71AFC85
:103E6000821B2B46204612B2BDE870400021FFF7AE
:103E7000F3BD00BFA136000870B5054616461C46C6
:103E80001A46FFF7CDFF224631462846BDE870406E
:103E9000FFF7DCBF73B504460E46FFF769F9002350
:103EA0002046019301F080FB2146054614340DB9EC
:103EB00002B070BD334601AA2046FFF731FE284606
:103EC00001F072FB29460546F1E72DE9F04F93B06A
:103ED0004FF0FF370D4616460022114604463B467A
:103EE0002846009716F00AF8002211463B46304655
:103EF000009716F003F810212046FDF7FDFA039015
:103F0000002845D02046FFF797FB074600283FD002
:103F1000002015F0CBFD022F824636D02046FFF759
:103F2000B9FB80462046FFF7C9FB06902046FFF705
:103F300019FC0E902046FFF77FFC07902046FFF704
:103F400083FB10F00C0983460DD0012F2FD0032FD7
:103F500021D1B8F1000F2ADC069B002BD4BF4FF013
:103F600000094FF001091BF0030F26D1B9F1000F32
:103F70000ED0002303932BE05046FCF758FE8442FA
:103F8000CCD0504615F092FD8246BAF1000FF3D125
:103F900013B0BDE8F08F022F0CD15046FCF739FE6C
:103FA000A0F10C03D3F1000949EB0309DBE7DDF8CD
:103FB0000C90D8E74FF00009D5E7012F08D0032F68
:103FC00040F0C7800E9B002B02DC079B002BCDDD51
:103FD0004FF480312046FFF7C7FA41F610020490F3
:103FE0004FF48031204600F007FC41F611020D909D
:103FF0004FF48031204600F0FFFB41F612020C9096
:104000004FF48031204600F0F7FB41F613020B908D
:104010004FF48031204600F0EFFB41F201024FF4F3
:1040200080310A90204600F0E7FB09902046BDF958
:104030002470FEF703FA82462046FEF7F9F9B9F13B
:10404000000F14BF3B4600230593039B8346002BC0
:104050004FF021024FF48031204608BF002700F0C6
:10406000CBFBC0B201287ED9B9F1000F40F08680A9
:10407000039B002B8CD01FFA8BF3079A03930E9BA4
:1040800013441FFA83F919FA8BF212B2002A3FF493
:104090007FAF638B0C99BDF92C80BDF928A05B1A0A
:1040A00009999BB2C1F10101EB800B446B80B4F91B
:1040B00014302B80B4F918300599AB80ABEB0803B2
:1040C000A3EB0A035B1A00200BFB03F393FBF2F351
:1040D0001EB215F0C9FC00EB80004000EF2840F351
:1040E0006C81002015F0C0FC50220A2100FB012049
:1040F000A02290FBF2F0864213DC002015F0B4FC05
:1041000000EB80004000EF2840F35981002015F0BB
:10411000ABFC0A22502300FB0233A02293FBF2F3F4
:104120001EB20FFA89F2002ABDF82C10BDF82870D3
:10413000BDF814B0A08A00F34B81049B012B238BA4
:1041400040F03F810139014459442980DB1BAB8099
:104150001EE7022F7FF40AAF5046FCF75AFD0328F2
:104160007FF404AF34E731224FF48031204600F071
:1041700043FBC0B201283FF677AF09E71FFA8AF385
:104180001193069B98441FFA88F818FA8AF212B223
:10419000002A3FF46DAFB4F916307380B4F91A30C9
:1041A000F380049BBDF82410012B5AD1A38A0B98ED
:1041B00003449BB2013933800B44B380BDF93430E2
:1041C0000F93BDF9303010930F9B1099AAEB0303A6
:1041D0005B1ADB1B00200AFB03F393FBF2F30FFADD
:1041E00083F915F041FC00EB80004000EF2842DD30
:1041F000002015F039FC50220A2100FB0120A022EA
:1042000090FBF2F0814513DC002015F02DFC00EB53
:1042100080004000EF2830DD002015F025FC0A2248
:10422000502300FB0233A02293FBF2F30FFA83F931
:10423000BDF83030E28A08930D9BBDF8341012FAB5
:1042400083F00FFA88F2002A1FFA87FA80B217DC8F
:10425000638B089A70809B1A013BA3EB0A03F380DF
:1042600006E7238B0A981B1A9BB2C1F10101B380A8
:104270000B443380A2E70120C4E74FF00109D7E7E0
:10428000089A119B8A189A1A1FFA89FEA2EB0A0251
:10429000069BA2EB0E021FFA82FC10FA82F21CFBB4
:1042A00003F090FBF8F0121A10B20EF1FF3313FA7C
:1042B00082F27080B4F91630F2800F9A1A4490425C
:1042C00034DA01EB03080FFA88F8A6F80280002020
:1042D00015F0CAFB00EB80004000EF2865DD0020F0
:1042E00015F0C2FB50230A2200FB0230A02390FBF2
:1042F000F3F0B6F906308044984517DD0020B6F893
:10430000028015F0B1FB00EB80004000EF284EDD8D
:10431000002015F0A9FB50230A2200FB0230A02345
:1043200090FBF3F080B28044A6F80680B4F91A300E
:104330001099B6F90620DF1B7F1ABA427FF798AEB4
:10434000089A9F1AA7EB0A073FB2F780002015F0E2
:104350008BFB00EB80004000EF282ADD002015F0E9
:1043600083FB50230A2200FB0230A02390FBF3F0D2
:10437000B6F902303F1A9F42BFF67AAE0020F788A6
:1043800015F072FB00EB80004000EF2813DD0020E9
:1043900015F06AFB50230A2200FB0230A02390FB99
:1043A000F3F080B23F1A778062E60120A1E7012096
:1043B000B9E70120DCE70120F4E701209BE60126B4
:1043C000AFE6DB1B0844013B2880A3EB0B03BEE6F2
:1043D000B3B2039ECA19B21AA2EB0B02D21A079EFD
:1043E00092B212FB06F696FBF9F6921B049E013B75
:1043F0000844012E92B29BB280B27DD15844104441
:1044000002B22A80B4F9146013FA80F0059BA880E8
:10441000B0449844424530DA0E445E4436B22E80B1
:10442000002015F021FB00EB80004000EF285FDD4D
:10443000002015F019FB50230A2200FB0230A023B4
:1044400090FBF3F0B5F9043006449E4215DD0020E0
:104450002E8815F009FB00EB80004000EF2849DDB5
:10446000002015F001FB50230A2200FB0230A0239C
:1044700090FBF3F080B20644AE80B4F91840B5F971
:104480000430A4EB0A0A53457FF782ADE41B24B243
:10449000AC80002015F0E8FA00EB80004000EF2827
:1044A00078DD002015F0E0FA50230A2200FB0230EC
:1044B000A02390FBF3F0B5F90030241A9C42BFF61C
:1044C00067AD0020AC8815F0CFFA00EB800040000B
:1044D000EF2861DD002015F0C7FA50230A2200FB07
:1044E0000230A02390FBF3F080B2241A2C804FE519
:1044F0000498A7E70120BEE7024410B2288013FA0F
:1045000082F2B4F91430AA80984440452FDA194455
:104510000EB22E80002015F0A7FA00EB80004000BC
:10452000EF2833DD002015F09FFA50230A2200FB0C
:104530000230A02390FBF3F0B5F9043006449E420C
:1045400015DD00202E8815F08FFA00EB800040006A
:10455000EF281DDD002015F087FA50230A2200FB0A
:104560000230A02390FBF3F080B20644AE80B4F991
:104570001840059BB5F90420E31AA3EB0A039A42FD
:104580007FF706ADE41BA4EB0B0480E70120D3E723
:104590000120EAE701208EE70120A6E71FB502AA65
:1045A00069460446FFF791FC684615F0B8FC18B957
:1045B00002A815F0B4FC78B1684615F0B0FC18B14B
:1045C00069462046FEF768F802A815F0A8FC18B165
:1045D00002A92046FEF760F804B010BD2DE9F041B5
:1045E0000446FFF73FF80E460546A0B92046FFF700
:1045F00051F807462046FFF761F8021E0BDA002F3C
:1046000009DD5242BA42A8BF3A46334612B22946A1
:104610002046FFF793F92046FFF71EF8804628BB97
:104620002046FFF79FF807462046FFF705F9414669
:1046300005462046FEF798FF01280FD0002D15DA19
:10464000002F13DD6D42BD42A8BF3D4633464246B2
:1046500029B22046BDE8F041FFF770B9002F05DA16
:10466000002D03DD334642463946F2E7BDE8F081CE
:10467000F8B5074600F0AAFF00240646B44200D170
:10468000F8BDBB681B6853F824502846FEF71EF897
:1046900000222A212846FCF74DF82846FEF716F896
:1046A0002846FFF7E5FF0134E8E7438C70B5044680
:1046B000C0680E46C3F3C5030022934203D80ED050
:1046C00000EBC20070BD00EBC201CD79AD0704D58F
:1046D0004968C1F31701B142F2D00132EDE7628CB3
:1046E000013303F03F0363F3C802D900628416F07C
:1046F0008DFB628CE06002F4FC72083A05460146CC
:10470000083025F059FF0821284616F0E3FB0C205D
:10471000E56816F065FBE3682860186816F0CEFFC0
:10472000E068C37943F00203C371436866F317037B
:104730004360C7E72DE9F84F064628480D4617465F
:10474000984616F0C7F84FF6FF7A04460CB9BDE854
:10475000F88F4445FBD02148214616F0C2F8236863
:10476000B342814601D04C46F0E7A368AB4202D089
:10477000B5F5702FF7D1A388BB422BD14FF0000BBA
:10478000718CC1F3C5018B45EDD2F06800EBCB0114
:104790004FEACB0C91F807E01EF0020F17D0B5F5E9
:1047A000702F04D04968C1F317018D420FD150F822
:1047B0000C00A18816F0B0FF0021204615F0B4FAD5
:1047C0000648214616F048F8204616F083F90BF10A
:1047D000010BD5E75745C6D1D0E700BF0005002043
:1047E0000148142115F0F9BF00050020014B187095
:1047F000704700BF000000202DE9F04F87B0C2F3E2
:104800008023019312F4804FC2F3803304460E4696
:104810009346029303D022F480411FFA81FBBCB976
:10482000002E40F09C8041F201039B4504D041F2F0
:1048300004039B4540F09380236841F20102002B62
:104840007ED1934500F08180B3F9160035E0002653
:10485000584617F083F8012303FA00F7238C94F8E5
:10486000228000936FEA0309FFB21FFA89F9C8F3A7
:1048700080080025638CC3F3C5039D4202D34FF02B
:10488000FF3848E0E26802EBC503E80093F807C090
:104890001CF0020FF3D0B8F1000F17D15B6803F4DE
:1048A0007F039E4212D11058837A1F420ED005AA70
:1048B000594616F09BFF48B10598029B1BB105466F
:1048C000002C50D1284607B0BDE8F08F0135D1E764
:1048D000E06800EBC5035B68C3F3170203F47F03D2
:1048E0009E422BD150F83500837A1F4226D012EA1F
:1048F000090F1FFA82FA21D1C245CDF80CA01DDDA7
:1049000005AA594616F072FFC0B1009B5345039BA0
:10491000D2D001359846638CC3F3C5039D42D7D3EB
:10492000B8F1FF3FC8D1019B002B3FF479AF002EB7
:104930008DD1204600F038FE044670E74346E8E794
:10494000934505D1B3F9140038B1B3F91400B4E7B5
:10495000B3F9160000287FF477AF1B686FE758465D
:1049600016F088FFA9E7632231462046FFF744FF8F
:1049700007460028A6D00368002BA3D06422314646
:104980002046FFF739FF10F0FF029BD029463B6815
:104990003846984760F30F0594E770B50468A5683A
:1049A000A288206805F47F052946FFF725FFA68821
:1049B000E060002332462068A38029462346FFF7A3
:1049C000B9FEA1682068A680FFF76FFEE268A188A3
:1049D0000068BDE8704016F0C9BF0000F8B52F4B65
:1049E0001B7804460E461546002B56D0FDF76EFE8A
:1049F000E80406F47F060AD5B6F5702F27D1002209
:104A00002A212046FBF796FE2046FDF771FCB6F5FD
:104A1000702F00D08EBB4FF6FF739D4235D0A90496
:104A200033D42A052DD42046FDF750FE4FF6FF73F0
:104A30009D4204D06B0530D515F4C05F2DD0B6F57E
:104A4000803F2AD02046BDE8F840FFF711BE002E77
:104A5000D5D041F2040200212046FFF7CDFE42F2FC
:104A6000D17700B2B842CAD041F2010200212046FB
:104A7000FFF7C2FE00B2B842C1D04FF6FF739D42AD
:104A8000CFD12046FDF746FBCDE7204600F08CFD58
:104A90000028F2D0FDF72CFCEFE7F8BD0000002065
:104AA0002DE9F843044616460F46002331464FF6DB
:104AB000FF72FFF73FFE618CE068C1F3C5014FF064
:104AC000000949454FEAC9083DD8638C013101F01E
:104AD0003F0161F3C8036384C90016F097F9638C42
:104AE000E060C3F3C5035A1EC3F1020391450546B6
:104AF0004B444FEAC2004FEAC303A0F1080188BF4C
:104B0000082319441844A2EB09024FEAC2022944BF
:104B100088BF0022284425F04FFD05EB080008213E
:104B200016F0D8F9E26842F8087002EB0803314643
:104B30005A6866F317025A6020464FF6FF72BDE8C6
:104B4000F843FFF74BBF00EB0803DB799B07BCD0B2
:104B500009F10109B5E74A8CF8B5C2F3C50205466B
:104B60000C4600239A420CD925B1E16851F8331064
:104B7000A9420ED14FF6FF724FF470212046FFF785
:104B80002DFF204600F022FD00260746BE4202D13E
:104B9000F8BD0133E6E7A3681B68284653F82610E2
:104BA000FFF7D9FF0136F1E70C4B1B7870B50646CD
:104BB00023B1002014F06CFF044660B970BDE368B7
:104BC000304653F82510FFF7C6FF0135636AAB4244
:104BD000F5D82046EEE70025F8E700BF00000020EA
:104BE0002DE9F74F06680B46718C0446C1F3C501E9
:104BF0000022914241D9D6F80CC00CEBC200D7007C
:104C0000C579AD0705D54568A068C5F31705854288
:104C100001D00132EDE7A18863294BD030D820299B
:104C200053D0A1F1300080B217282ED80122824043
:104C30004F48024249D112F0180F26D0FE2B37DC24
:104C4000E5685CF8070001AA16F0D0FD002800F026
:104C50008B80019BB3EB050818BF4FF00108F36888
:104C6000A188D8592A4616F081FEB8F1000F04D069
:104C7000A288A1682068FFF7B1FE03B0BDE8F08FFD
:104C80006829DBD00CD86729D8D0002BD8D0FF2BCF
:104C90000ED0D4E90352521B5A4305EB2225D0E72C
:104CA00040F25742914210D041F259429142EBE713
:104CB0002569C6E7D4E903520DB91546C1E7002AB4
:104CC000BFD07F2BC8BF1546BBE7002B04DCA389F0
:104CD000002563F30F05B4E7FE2B01DD238AF7E718
:104CE00094F810B094F811A0257B607B0BF00702BC
:104CF0004FEA5A1E0EEBC20E05F007084209C3F137
:104D0000FF0902EBC8024FEAD50809FB02F24FEA9D
:104D1000DB0B09FB08F800F01F0003FB0E2203FB6E
:104D20000B880AF01F0A09FB00F048F2810E80325E
:104D300008F1800803FB0A030EFB02F20EFB08F8E1
:104D40008033C2F38265C8F3C4580EFB03F345EA0F
:104D5000C805C3F3C45345EA0325D20D45EA4232E0
:104D6000002562F30F056CE74FF0010877E700BFFD
:104D7000010890002DE9F84F04461FFA82F902F469
:104D80007F058846D1B1CE7A003E18BF0126764213
:104D9000B6B2002217464FF6FF7A638CC3F3C50301
:104DA000BB420ED8002A68D0002E66D02946204685
:104DB0004FF6FF72BDE8F84FFFF710BE4FF6FF76D3
:104DC000E7E7E06800EBC701D1454B684FEAC70B46
:104DD000C3F3170303D01FFA83FCCC450DD1B5F5FF
:104DE000702F03D003F47F03AB4206D1B8F1000F5C
:104DF00005D050F80B30434501D00137CDE7CB79D2
:104E0000990706D500234FF6FF7229462046FFF783
:104E100091FCE36803EB0B02D27992070CD053F8B4
:104E20000B0016F055FCE36853F80B0015F052FE2A
:104E3000E368002243F80B20638CD4F80CC0C3F362
:104E4000C50303F1FF3B3A4606E001320CEBC20E0C
:104E50009EE803000EE903009345F6D803F13F01F5
:104E6000638C01F03F0161F3C8036384C9006046AD
:104E700015F0CCFF0122E0608FE7BDE8F88F00005D
:104E80002DE9F041046827482568A788254E15F0CC
:104E90001EFD014619B96A8CC2F3C5023DE0A1426C
:104EA0000BD00A6823689A4207D18A68A3689A429D
:104EB00003D18A88A3889A4231D0304615F00DFD7F
:104EC0000146E7E7EB6803EBC103CE00D879800722
:104ED00022D55B68A068C3F3170383421CD1214627
:104EE000104815F0B9FC204615F0F4FDEC68394681
:104EF000A05916F011FCEB68985904EB060816F05F
:104F00001FFD60B1D8F80420A159284622F07F4245
:104F1000BDE8F041FFF72EBF01318A42D2D8BDE88B
:104F2000F08100BF000500202DE9F0470F46418CBD
:104F30000546C0681E469046C1F3C50100238B425A
:104F40000DD36B8C013101F03F0161F3C8036B8419
:104F5000C90015F05BFF0246E860D8B9FEE700EB38
:104F6000C302DC0092F807C01CF0010F10D0526899
:104F7000C2F3170296420BD100594246394616F049
:104F8000F5FC3A4631462846BDE8F047FFF726BD16
:104F90000133D4E76C8CC4F3C50404F1FF3A04F187
:104FA0000054023C00EBC4044FEACA09BAF1000FF6
:104FB0001DD102EB0900082115F08CFF0C20EC68D4
:104FC00015F00EFFEB6844F83A0053F83A0016F07B
:104FD00075FBE96801EB0903DA7942F00102DA7145
:104FE0005A6866F317025A6051F83A00C5E7E37948
:104FF0009B07A4F10804DCD1D4E9020102EB090308
:1050000083E803000AF1FF3ACEE7F0B5458C0024AF
:10501000C5F3C505A54201D80020F0BDC76807EB60
:10502000C4064FEAC40C96F807E01EF0010F0AD040
:105030007668C6F317069E4205D157F80C00BDE806
:10504000F04016F0D3BB0134E4E770B4458C002384
:10505000C5F3C5059D4203D80DD1002070BC704733
:10506000C46804EBC304E679F6070AD56468C4F3A0
:105070001704944205D1C26870BC52F8330016F090
:105080004BBB0133E6E700002DE9F047984690B0AE
:1050900090F82230189E028443F0040380F82230F6
:1050A0001546328904460F46FFF7A6FB3289A4F85D
:1050B0002080824639462046FFF79EFB94F8223036
:1050C00082456FF38203814684F8223072D03289A0
:1050D000258439462046FFF78FFB39460546A4F85C
:1050E00020802046FFF7E1FA318900682A4616F051
:1050F0003DFC3389602B22D147F6FF739D4201D0DE
:1051000099451CD12046FDF793F900EBD07040F390
:105110004F082046FDF78CF947F6FF7200EBD0737D
:10512000954243F34F0318D198450EDA08F1010573
:1051300091452DB203D108F101080FFA88F91F48F3
:1051400015F053FB804668B9FEE75D1C91452DB212
:10515000F5D101330FFA83F9F1E79145EFD1984585
:10516000F7DAE8E733898380C0E903590460876090
:10517000684614F0BFFDFF22099232880A927288B5
:105180000F4B019352420F4B0B92F268029306921F
:105190000D4B9DF83E200393002363F30002CDE9FD
:1051A000073368463369CDF800808DF83E200593BB
:1051B00014F0E6FD10B0BDE8F08700BF0005002048
:1051C000E14B00089B490008814E00082DE9F74398
:1051D000002507462E466FEA01086FEA02097B8C1C
:1051E000C3F3C503AB4240F2AD80FB6803EBC502DD
:1051F000E900D079840700F1A280928818EA020FB2
:105200000CBF0120002019EA020F0CBF012200226E
:10521000904200F094805C5801AA41F610012046AB
:1052200016F0E4FA002840F08C8001AA41F6110142
:10523000204616F0DBFA002840F0838001AA41F6F0
:105240001201204616F0D2FA00287AD101AA41F6BE
:105250001301204616F0CAFA002872D101AA41F6BD
:105260001501204616F0C2FA00286AD101AA41F6BB
:105270001401204616F0BAFA002862D101AA41F2C0
:105280006901204616F0B2FA00285AD101AA43F269
:105290000C01204616F0AAFA002852D101AA43F2C6
:1052A0000D01204616F0A2FA00284AD101AA41F2C7
:1052B0000101204616F09AFA002842D101AA41F2D3
:1052C0000401204616F092FA00283AD101AA41F2D0
:1052D0000201204616F08AFA98BB01AA41F20301A6
:1052E000204616F083FA60BB01AA41F20501204670
:1052F00016F07CFA28BB01AA41F20601204616F0FE
:1053000075FAF0B901AA41F23201204616F06EFAA0
:10531000B8B901AA43F60F01204616F067FA80B922
:1053200001AA43F60E01204616F060FA48B901AA18
:1053300040F60A01204616F059FA38B10226013526
:105340004DE70326304603B0BDE8F08301AA40F6DE
:105350000B01204616F04AFA0028EFD101AA43F6C5
:105360000F01204616F042FA0028E7D101AA43F6C1
:105370000E01204616F03AFA0028DFD101AA40F6C5
:105380003C01204616F032FA0028D7D101AA40F697
:105390003D01204616F02AFA0028CFD101AA40F696
:1053A0003A01204616F022FA0028C7D101AA4FF48C
:1053B0000461204616F01AFA0028BFD101AA40F66F
:1053C0004501204616F012FA0028B7D101AA40F68E
:1053D0004101204616F00AFA0028AFD101AA40F692
:1053E0004201204616F002FA0028A7D101AA40F691
:1053F0004301204616F0FAF900289FD101AA40F691
:105400004901204616F0F2F9002897D1012E38BF45
:10541000012694E780B2704700F47F00704770B5B2
:1054200041F25D4205460E46FFF7E6F941F26A4257
:10543000C4B231462846FFF7DFF9012C204638BFB9
:10544000012070BD13460A4641F20101FFF76CBD11
:1054500013460A4641F20201FFF766BD13460A46AB
:1054600041F20401FFF760BD13460A4641F207010D
:10547000FFF75ABD13460A4641F20801FFF754BD33
:1054800013460A4641F20901FFF74EBD13460A468C
:1054900041F61001FFF748BD13460A4641F61101D7
:1054A000FFF742BD13460A4641F61201FFF73CBD25
:1054B00013460A4641F61301FFF736BD17B4002420
:1054C0001346224664F31F4261F30F022021ADF818
:1054D000004003B05DF8044BFFF726BD13460A46B3
:1054E0002121FFF721BD13460A4640F62801FFF7A8
:1054F0001BBD13460A4641F23201FFF715BD17B432
:1055000000241346224664F31F4261F30F0240F267
:105510005741ADF8004003B05DF8044BFFF704BD00
:1055200013460A4641F25941FFF7FEBC13460A46AC
:1055300041F25D41FFF7F8BC13460A466021FFF7D0
:10554000F3BC13460A4641F26901FFF7EDBC13466E
:105550000A4641F26A41FFF7E7BC034620B118460C
:105560005B68002BFBD1704770470000436810B5A3
:10557000044613B1FFF7F1FF04460A4815F0A7F9F6
:1055800078B1426A002305E0C16851F82310A142B6
:1055900007D001339A42F7D10146024815F09DF930
:1055A000EEE710BD4805002000B1406870478068F4
:1055B00058B10029436801DAC91805D4994203D2C9
:1055C000036853F82100704700207047806800B1DD
:1055D0004068704770B50446A0B14568A5B128463B
:1055E000FFF7F4FF00220646964203D14FF0FF3248
:1055F000104670BD11462846FFF7D9FF8442F7D008
:105600000132F1E70246F3E72A46F1E72DE9F041DE
:10561000002221210546FBF78DF8002871D00021DA
:105620002846FFF7C4FF064670BB2846FBF772FF0B
:105630000746304614F03AFA044648BB2846FCF7C1
:10564000E7F96B682846002B43D1FFF78FFF466AC6
:10565000D0F80C800746B44235D1013EA000321B81
:10566000011D9200B44288BF00224144404424F00E
:10567000A3FF7E62B100404615F0C8FBF8602846E3
:10568000BDE8F04115F026BA3046FFF7BFFFC6E788
:10569000636A9D4202D0A36A9D4203D129462046F7
:1056A000FBF744FA236B9D42236D08BF26639F429C
:1056B00007D1FBF7DFFA854203D129462046FBF7E5
:1056C00035FA2046B6E758F824309D42C5D001345B
:1056D000C1E7FFF77FFF03466A6894686168206846
:1056E00001398B4205D36160890015F08FFB206082
:1056F000C5E7013350F8232000EB830040F8042C69
:10570000EAE7BDE8F081F8B50546FCF7DFFFFDB13B
:105710006C68ECB12046FEF741FF00273E46284664
:10572000FFF774FF84B100212046FEF757FF2046A3
:10573000FEF734FF002222212046FAF7FBFF002269
:1057400024212046FAF7F6FF0FB100233361F8BD9C
:105750002846FFF70BFF06460028F8D007697B1B99
:105760005F425F410024DAE738B50546FCF7AEFF3B
:1057700000212846FFF71BFF044648B903460246AE
:1057800001462846FEF778FBAB6803B11C6138BDC3
:105790002046FFF73BFFEBE743682DE9F041044665
:1057A0000D46002B66D0002964D0FCF78FFF2846F9
:1057B000FCF790F866682046FFF70CFFD6F80880E3
:1057C000D8F8002003463046FFF700FF0138984222
:1057D00043DCD8F80470013FC8F80470002F43D0B0
:1057E000B900104615F012FBC8F80000AF687968E0
:1057F000386801317960890015F008FB3860284667
:10580000FFF7E4FEAB6800F180401B68013800211F
:1058100043F8204030466560FEF7E0FE3046FEF774
:10582000BDFE224622213046FAF784FF00222421C1
:105830003046FAF77FFF224622212846FAF77AFF00
:10584000002223212846FAF775FF2046FCF750FD79
:105850002046BDE8F041FCF739BF02EB83014968FF
:1058600042F823100133AEE7104615F033F9B36860
:105870001F60BBE7BDE8F08170B50D1E044621DA5C
:1058800000B14068FFF7A2FE05441CB16668002D18
:105890001BDA70BD2646FAE702EB800151F8041CC2
:1058A00042F8201001388542F6D11B68304643F893
:1058B000254000222221FAF73DFF3046BDE8704026
:1058C000FCF704BF0028E1D126463046FFF77EFEF4
:1058D000A842DEDD2046FFF77DFE8542D9D0B368C1
:1058E0001A68D9DB02EB8001496842F820100130C8
:1058F0008542F7D1D9E773B505890C884E8843698D
:105900002C44ADF8004044892644ADF802608E88EE
:10591000C98835440C44ADF80450ADF806406946DA
:10592000984702B070BDF7B50D4600221431064607
:1059300014F022FC10B9002003B0F0BD012128466C
:10594000FBF7DAFD04460028F5D18DF800006A4621
:10595000122128460196FAF7EDFE9DF80030022B41
:10596000E9D02846FFF732FE0746BC4206D19DF833
:105970000030002B0CBF28460020DDE7AB681B6819
:10598000304653F82410FFF7CEFF0028D4D101345D
:10599000EBE700002DE9F04FA64C95B0079020688A
:1059A00014F080F8079B1B689D6BEB6A80460BB177
:1059B00028469847D8F8003053B920680668012374
:1059C000F268C8F810309169CF0710D4002311E0B5
:1059D000D8F80430002BF0D023681868D8F81030BD
:1059E000002BEAD0836A002BF8D09847F4E792693D
:1059F0009407EBD5C8F81430D8F814300C93079BF3
:105A00001B685A69002A00F09B801A7C12F0300F44
:105A1000D5E9005400F0B781510740F1B481337CDF
:105A200003F00602062A00F08B8003F03002202AE1
:105A30003BD1B4F804E0B4F80690228861880EF1F6
:105A4000010009F10103801A5B1A00B21BB24FF08A
:105A5000FF3700FB0377434305EB4303A5F1020C3B
:105A60003846A7EB000A504515D87388013B9BB216
:105A7000591AA3EB090363803388E180013B9BB291
:105A80009A1AA3EB0E03A28023802A4621463046B1
:105A9000FFF731FF54E033F802AD3CF802BFA3F842
:105AA00000B00138ACF800A0DBE7DA0648D513F007
:105AB000F9FF2388B4F9042005930190531C05983D
:105AC000B4F900109BB21F1A0693BBB20893B4F945
:105AD00002300D9363880293E388029801331B1A06
